:04000000803114280F
:100008007E1480312E00161E0A280B2812280C1E7A
:100018000E280F2812288231062280317E1009000E
:100028008031162870308400223085008030FE0030
:100038000130FF008231672280312000A801A90128
:10004800AA01AB01AC01AD01AE01AF017E102000E9
:10005800813121292300901A3228332895287608DF
:10006800F700F8017708F0007808F1000530F20091
:100078000030F300813168218031953070078400A9
:100088000230713D80388500000823008F00760813
:10009800F700F8017708F0007808F1000530F20061
:1000A8000030F30081316821803196307007840078
:1000B8000230713D803885000008230090007608E2
:1000C800F700F8017708F0007808F1000530F20031
:1000D8000030F30081316821803197307007840047
:1000E8000230713D803885000008230092007608B0
:1000F800F700F8017708F0007808F1000530F20001
:100108000030F30081316821803198307007840015
:100118000230713D80388500000823008D0090165C
:10012800952808002000960197019801BC3091009D
:10013800FE309200C0309300BF303E00B800FF3060
:10014800C300E430CE00B901C401CF01E501BA0112
:10015800C501D001FF30BB00FF30C600E330D1003D
:10016800FF30BC00FF30C700E330D2000830E800A1
:100178001530A4000130A5000F3091000E3090001A
:1001880013303D00C50014303E00A30012303D007E
:10019800A10009303E00A20008303D00A2000A304C
:1001A8003E0098004030BD00BE01BF01C801C90132
:1001B800CA01D3010130D400D501E901EA01EB01FC
:1001C8001630F0000330F1008231C322803115303F
:1001D800F0000330F1008231BD2280312E00161666
:1001E80008007108F7007008F6007308F500720837
:1001F800F4001A297608860077088700010823008A
:100208008C002E000F1C09290A2905290F107608D1
:1002180086007708870023000C0881000130F60764
:100228000030F73D0130F4020030F53B74087504E6
:10023800031D1F292029FE2808008131462181310C
:100248008B170B17F60180312E2081317030F000AA
:100258002230F1000030F200F3008030F400013069
:10026800F5008131C02181317030F0002230F10079
:100278008030F2000130F3008031F52081314329CC
:10028800803114288231A822813180319620813131
:1002980081318721813182317322813182318A22F1
:1002A800813182314222813182313522813182315C
:1002B8009F2281318131F12181318131DC218131EC
:1002C80082317F2281310800F401F501701C6D290B
:1002D8006E2972297208F4077308F53D0130F2356A
:1002E800F30D890B73290130F136F00C890B78294D
:1002F80070087104031D812982296A297508F10093
:100308007408F00008003C00910127309200133077
:10031800930026309400950102309600083097002B
:100328002030980002309900803090000030F000B2
:100338000030F1008231CE2281312E0011120800E6
:100348009F340234003400342E3400340034003436
:10035800F534003400340034003400340034003400
:1003680000340034003400340034003400340034E5
:1003780000340034003400347108F7007008F600C7
:10038800CF29760886007708870072088100013037
:10039800F6070030F73D0130F4020030F53B740AEF
:1003A800031DDA29750A031DDA29DB29C529080086
:1003B800033025009600950197019C309300920127
:1003C8000030F0000030F1008231B12281312E007E
:1003D8009011FF302500940008000130250090009E
:1003E8008F01910104308D008C010030F000003045
:1003F800F1008231B72281312E0090108030250023
:100408008E0008003E003F1F0A2A0B2A0E2A82315E
:10041800262282313E00551C122A132A162A8231BE
:1004280017228231080020002408250403191D2AF8
:100438001E2A232A25088A0024080A0082313E0041
:100448005510080020002608270403192C2A2D2AF5
:10045800322A27088A0026080A0082313E003F1304
:100468000800803027009200E6309100403090006C
:1004780024001F08CF3920389F000800803027004B
:100488008E0099308D0040308C0024001F08F3390D
:1004980008389F000800DC3401340034003400348C
:1004A800003400340034B134023400340034F13400
:1004B8000134003400340034003400340034B734DC
:1004C8000234003400346400800101310130FE023E
:1004D8000030FF3B7F087E04031D682A00348F30FC
:1004E80026008E008D010A308C0024001E08FC397D
:1004F80001389E0008002E000C100B140030F0008C
:100508000030F1008231C922823108008F30260084
:1005180092009101900124001E08F33908389E00CA
:1005280008000034033410340934003464340034CF
:100538001034013400342E0019100F1023008F01DD
:10054800900192018D010800603031008D008F010B
:100558009101063093009201080071082000A10063
:100568007008A000080071082000A3007008A2000D
:10057800080071082000A5007008A4000800710890
:100588002000A7007008A60008007108FA0070088B
:10059800F90008007108FC007008FB00080000342E
:1005A80000340034B634FF34C134FF34FF34FF3430
:1005B80000347F34FF3400340034FF34FF34003417
:1005C800FF34FF3400340034FF34FF340034663421
:1005D800F4341B340034FF3400340034FF34FF3467
:1005E800003400340034B634FF34C134FF34FF34EF
:1005F800FF3400347F34FF3400340034FF34FF34D8
:100608000034FF34FF3400340034FF34FF34003446
:100618006634F4341B340034FF3400340034FF34BF
:06062800FF340800080089
:020000040001F9
:0A000E008F3FDE379F3FFF3FFF3FAB
:00000001FF
