:04000000803114280F
:100008007E1480312E00161E0A280B2812280C1E7A
:100018000E280F2812288331C32380317E1009004F
:100028008031162870308400223085008030FE0030
:100038000130FF008531322580314B30840000309B
:1000480085000D30FE000030FF00853132258031FB
:10005800A0308400003085002030FE000030FF0012
:100068008531322580317E1020008331002B7B08BA
:1000780086008701403F2000A000413FA1002008E2
:100088008400210885001200253A031D4C284D28BC
:1000980031297B0886008701013081074131031827
:1000A800810AD301D4010310003003180130D700AE
:1000B800FF30D500FF30D6007B0886008701403F1F
:1000C800A800413FA90028088400290885000008E5
:1000D800AA0088280130A8070030A93D2808840014
:1000E800290885001200683A031D7B287C2890287F
:1000F8004830AA000130A8070030A93D902869308F
:10010800AA009028AA0190282A08683A03196E289C
:100118001D3A0319832886282808840029088500A1
:100128001200753A031D99289A282829B8287C08AE
:100138008600870101088400850102308107003F9D
:10014800A400013FA500C0287C088600870101089B
:1001580084008501023081070008A000A101200861
:10016800A4002108A500C0282A08483A0319A8288D
:10017800213A03199B28C0282808013EA000003016
:10018800293DA1007B08860087012008C03F21087F
:10019800C13F1F292030AA000130AA022A08A03E28
:1001A800860087010A30F0000030F1002508F300CE
:1001B8002408F2008331372380317008303E8100F3
:1001C8000A30F0000030F10020002508F300240870
:1001D800F2008231C422803171082000A500700825
:1001E800A400240825040319FA28FB2818292A083A
:1001F800031DFF280029D02818292A08A03E8600B8
:1002080087010108A000A1012008F0002108F100E1
:100218007A08F3007908F2008131B4218031013085
:100228002000A0002008AA0720302A06031D1D2947
:100238001E2901294B29280884002908850000085F
:10024800753A0319CE2828297B08860087010130D2
:10025800810741310318810A4B297B0886008701F1
:10026800403FA000413FA1002008840021088500EC
:100278000008A200A3012208F0002308F1007A0870
:10028800F3007908F2008131B4218031282908006F
:100298002300901A50295129B3297608F700F8014C
:1002A8007708F0007808F1000530F2000030F3001C
:1002B8008331E42381315530700784000530713D66
:1002C80080388500000823008F007608F700F801C1
:1002D8007708F0007808F1000530F2000030F300EC
:1002E8008331E42381315630700784000530713D35
:1002F800803885000008230090007608F700F80190
:100308007708F0007808F1000530F2000030F300BB
:100318008331E42381315730700784000530713D03
:10032800803885000008230092007608F700F8015D
:100338007708F0007808F1000530F2000030F3008B
:100348008331E42381315830700784000530713DD2
:1003580080388500000823008D009016B329080016
:10036800720873040319B929BA29C02972087304D9
:10037800031DBF29C029C52970088531E8258131A9
:10038800102A720886007308870049311600010494
:100398000319CF29D029F02972088600730887002D
:1003A8004931403FF400413FF50072088600730868
:1003B80087004231403FF600413FF7007708803A16
:1003C800F8007508803A7802031DEC297408760253
:1003D8000318EF29F029102A72088600730887008D
:1003E80042317208840073088500403F0007F4001A
:1003F8000131413F003DF50074088600750887000B
:100408007008810072088600730887004231013045
:10041800810741310318810A0800200096019701DD
:100428009801BF309100FF309200C43093008330B0
:100438003E00B800FF30C300E430CE00B901C4016B
:10044800CF01E501BA01C501D001FF30BB00FF3083
:10045800C600E730D100FF30BC00FF30C700E730EE
:10046800D2000830E8001530A4000130A500133090
:100478003D00C50014303E00A300BD013C30BE0065
:10048800BF01C801C901CA01D301D401D501E901DD
:10049800EA01EB01EC30F0000530F10085318F25E1
:1004A8008231EB30F0000530F10085318925823149
:1004B800EA30F0000530F100853183258231E930DA
:1004C800F0000530F10085317D2582312E001616A9
:1004D80008002000B7000C1D722A732A752AB9017A
:1004E800B90A8C1D782A792A7B2A0230B9000C1E99
:1004F8007E2A7F2A812A0330B9008C1E842A852A05
:10050800872A0430B9000A30F000370884318F2474
:10051800823120003907B8009D2AC32AC32AC32A7A
:10052800C32AC32AC32AC32AC32AC32AC32AC32A5B
:10053800C32A38080B3A0319912A073A0319922A51
:10054800013A0319932A033A0319942A1B3A031907
:10055800952A033A0319962A013A0319972A0F3A5A
:100568000319982A073A0319992A3F3A03199A2A2C
:10057800013A03199B2A033A03199C2AC32A080043
:10058800F501F601700871040319CB2ACC2AFB2A5D
:10059800F701F70AD82A0130F035F10D890BD02A76
:1005A8000130F4007408F707F11FDB2ADC2ACF2A90
:1005B8000130F535F60D890BDD2A71087302031D2C
:1005C800E72A70087202031CEA2AEB2AF02A70084C
:1005D800F2027108F33B75140130F136F00C890B07
:1005E800F12A0130F702031DFA2AFB2ADC2A7608D1
:1005F800F1007508F00008008431762483318B17E8
:100608000B17F60181314C2183317030F000223014
:10061800F1000030F200F3008030F4000130F50002
:1006280084315A2483317030F0002230F100803058
:10063800F2000130F30083319723833183316B2338
:1006480083310B302000BA006230890B292BBA0B9A
:10065800292B000083316B23833182316D22833152
:10066800222B803114287008710403193C2B3D2B70
:10067800662BF501F50A492B0130F035F10D890B90
:10068800412B0130F4007408F507F11F4C2B4D2B5A
:10069800402B71087302031D532B70087202031C50
:1006A800562B572B5B2B7008F2027108F33B013075
:1006B800F136F00C890B5C2B0130F502031D652B1C
:1006C800662B4D2B7308F1007208F0000800F10149
:1006D800F201802B200098141613F101F10A8B2BDC
:1006E8002000161718100230F1008B2B2000181468
:1006F80098100330F1008B2B7208013A03196E2B06
:10070800033A0319742B013A03197A2B8B2B013006
:10071800F0007008F20704307202031C942B952B2A
:10072800802B710808007108F7007008F60073083C
:10073800F5007208F400BC2B76088600770887005D
:10074800010823008C002E000F1CAB2BAC2BA72B11
:100758000F10760886007708870023000C088100B0
:100768000130F6070030F73D0130F4020030F53B68
:1007780074087504031DC12BC22BA02B08003E0072
:100788003F1DC72BC82BCB2B85310B2583313E0052
:10079800BF1DCF2BD02BD32B8431FC2483313E00BB
:1007A8003F1ED72BD82BDB2B8431ED2483313E0021
:1007B800BF1EDF2BE02BE32B8431DE2483310800BE
:1007C800F401F501701CE92BEA2BEE2B7208F407F3
:1007D8007308F53D0130F235F30D890BEF2B01302D
:1007E800F136F00C890BF42B70087104031DFD2BF6
:1007F800FE2BE62B7508F1007408F00008002000B5
:100808002E08B1002D08B000142C2C08FA002B0873
:10081800F9003030FB002F08FC0080313B20843188
:10082800200030088400310885001200031D1D2CAB
:100838001E2C092CAB01AC0108003C0091012730AB
:1008480092001330930026309400950102309600F0
:1008580008309700203098000230990080309000CE
:100868000030F0000030F10085319B2584312E00E6
:10087800111208005F340534003400344C3401345C
:100888000034003497340334003400340034003426
:1008980000340034003400340034003400340034B0
:1008A8000034003400340034003400347108F70098
:1008B8007008F600692C76088600770887007208A9
:1008C80081000130F6070030F73D0130F4020030B6
:1008D800F53B740A031D742C750A031D742C752CC2
:1008E8005F2C0800853168258431823111228431DA
:1008F80084312124843185313E25843185315F2539
:1009080084318431B92484318431A42484318531FB
:100918004A2584310800F300F201731C942C952CAD
:10092800992C7008F1007108F2070310F00D0310FC
:10093800F30C7308031DA12CA22C912C720808003B
:10094800033025009600950197019C309300920191
:100958000030F0000030F1008531712584312E001F
:100968009011FF3025009400080001302500900008
:100978008F01910104308D008C010030F0000030AF
:10098800F1008531772584312E00901080302500C4
:100998008E00080034302000B6000030AB00AC00F8
:1009A8003308AE003208AD003630AF00843103247E
:1009B8008431080020003F0840040319E42CE52C8A
:1009C800EA2C40088A003F080A0084313E00BF1222
:1009D80008002000410842040319F32CF42CF92CD8
:1009E80042088A0041080A0084313E003F1208008C
:1009F8002000430844040319022D032D082D440840
:100A08008A0043080A0085313E00BF110800200013
:100A1800450846040319112D122D172D46088A0082
:100A280045080A0085313E003F110800A43404340B
:100A38000034003400340034003400347134053498
:100A480000340034B9340434003400340034003441
:100A580000340034773405340034003464008001F5
:100A680001310130FE020030FF3B7F087E04031D88
:100A7800332D00348F3026008E008D010A308C0013
:100A880024001E08FC3901389E0008002E000C10B6
:100A98000B140030F0000030F100853195258531C8
:100AA800080000340334103409340034643400344A
:100AB8001034013400342E0019100F1023008F0158
:100AC800900192018D010800603031008D008F0186
:100AD8009101063093009201080071082000BC00C3
:100AE8007008BB00080071082000BE007008BD0037
:100AF800080071082000C0007008BF0008007108D5
:100B08002000C2007008C100080071082000C4005D
:100B18007008C300080071082000C6007008C500EE
:100B2800080071082000C8007008C7000800710894
:100B38002000CA007008C9000800253468346834E9
:100B480075340034003400340034B634FF34C13412
:100B5800FF34FF34FF3400347F34FF340034003472
:100B6800FF34FF340034FF34FF3400340034FF34E2
:100B7800FF3400346634F4341B340034FF3400345A
:100B88000034FF34FF34003400340034B634FF340A
:100B9800C134FF34FF34FF3400347F34FF34003471
:100BA8000034FF34FF340034FF34FF3400340034A1
:100BB800FF34FF3400346634F4341B340034FF341B
:100BC80000340034FF34FF3408000800080008002F
:020BD800080013
:020000040001F9
:0A000E008F3FDE379F3FFF3FFF3FAB
:00000001FF
